{
  "_format": "hh-sol-artifact-1",
  "contractName": "CompanyShipmentTracker",
  "sourceName": "contracts/CompanyShipmentTracker.sol",
  "abi": [
    {
      "anonymous": false,
      "inputs": [
        {
          "indexed": true,
          "internalType": "string",
          "name": "name",
          "type": "string"
        },
        {
          "components": [
            {
              "internalType": "uint256",
              "name": "deliveryTime",
              "type": "uint256"
            },
            {
              "internalType": "bool",
              "name": "success",
              "type": "bool"
            },
            {
              "internalType": "uint256",
              "name": "feedbackScore",
              "type": "uint256"
            },
            {
              "internalType": "uint256",
              "name": "timestamp",
              "type": "uint256"
            }
          ],
          "indexed": false,
          "internalType": "struct CompanyShipmentTracker.ShipmentEntry",
          "name": "entry",
          "type": "tuple"
        }
      ],
      "name": "CompanyEntryAdded",
      "type": "event"
    },
    {
      "inputs": [
        {
          "internalType": "string",
          "name": "name",
          "type": "string"
        },
        {
          "internalType": "uint256",
          "name": "deliveryTime",
          "type": "uint256"
        },
        {
          "internalType": "bool",
          "name": "success",
          "type": "bool"
        },
        {
          "internalType": "uint256",
          "name": "feedbackScore",
          "type": "uint256"
        }
      ],
      "name": "addShipmentEntry",
      "outputs": [],
      "stateMutability": "nonpayable",
      "type": "function"
    },
    {
      "inputs": [],
      "name": "getAllCompanies",
      "outputs": [
        {
          "components": [
            {
              "internalType": "string",
              "name": "name",
              "type": "string"
            },
            {
              "internalType": "uint256",
              "name": "totalDeliveries",
              "type": "uint256"
            },
            {
              "internalType": "uint256",
              "name": "successfulDeliveries",
              "type": "uint256"
            },
            {
              "internalType": "uint256",
              "name": "unsuccessfulDeliveries",
              "type": "uint256"
            },
            {
              "internalType": "uint256",
              "name": "totalFeedbackScore",
              "type": "uint256"
            },
            {
              "internalType": "uint256",
              "name": "totalDeliveryTime",
              "type": "uint256"
            },
            {
              "components": [
                {
                  "internalType": "uint256",
                  "name": "deliveryTime",
                  "type": "uint256"
                },
                {
                  "internalType": "bool",
                  "name": "success",
                  "type": "bool"
                },
                {
                  "internalType": "uint256",
                  "name": "feedbackScore",
                  "type": "uint256"
                },
                {
                  "internalType": "uint256",
                  "name": "timestamp",
                  "type": "uint256"
                }
              ],
              "internalType": "struct CompanyShipmentTracker.ShipmentEntry[]",
              "name": "entries",
              "type": "tuple[]"
            }
          ],
          "internalType": "struct CompanyShipmentTracker.CompanyData[]",
          "name": "",
          "type": "tuple[]"
        }
      ],
      "stateMutability": "view",
      "type": "function"
    },
    {
      "inputs": [],
      "name": "getCompanyCount",
      "outputs": [
        {
          "internalType": "uint256",
          "name": "",
          "type": "uint256"
        }
      ],
      "stateMutability": "view",
      "type": "function"
    },
    {
      "inputs": [
        {
          "internalType": "string",
          "name": "name",
          "type": "string"
        }
      ],
      "name": "getCompanyEntries",
      "outputs": [
        {
          "components": [
            {
              "internalType": "uint256",
              "name": "deliveryTime",
              "type": "uint256"
            },
            {
              "internalType": "bool",
              "name": "success",
              "type": "bool"
            },
            {
              "internalType": "uint256",
              "name": "feedbackScore",
              "type": "uint256"
            },
            {
              "internalType": "uint256",
              "name": "timestamp",
              "type": "uint256"
            }
          ],
          "internalType": "struct CompanyShipmentTracker.ShipmentEntry[]",
          "name": "",
          "type": "tuple[]"
        }
      ],
      "stateMutability": "view",
      "type": "function"
    },
    {
      "inputs": [
        {
          "internalType": "string",
          "name": "name",
          "type": "string"
        }
      ],
      "name": "getCompanyMetrics",
      "outputs": [
        {
          "internalType": "string",
          "name": "companyName",
          "type": "string"
        },
        {
          "internalType": "uint256",
          "name": "totalDeliveries",
          "type": "uint256"
        },
        {
          "internalType": "uint256",
          "name": "successRate",
          "type": "uint256"
        },
        {
          "internalType": "uint256",
          "name": "avgFeedbackScore",
          "type": "uint256"
        },
        {
          "internalType": "uint256",
          "name": "avgDeliveryScore",
          "type": "uint256"
        },
        {
          "internalType": "uint256",
          "name": "successfulDeliveries",
          "type": "uint256"
        },
        {
          "internalType": "uint256",
          "name": "unsuccessfulDeliveries",
          "type": "uint256"
        }
      ],
      "stateMutability": "view",
      "type": "function"
    }
  ],
  "bytecode": "0x608060405234801561001057600080fd5b506115be806100206000396000f3fe608060405234801561001057600080fd5b50600436106100575760003560e01c806313ac00231461005c578063216949fa1461008c578063408bf4c3146100a85780636a073708146100c6578063f0782640146100fc575b600080fd5b610076600480360381019061007191906109c0565b61011a565b6040516100839190610b41565b60405180910390f35b6100a660048036038101906100a19190610bbb565b6101d3565b005b6100b061041d565b6040516100bd9190610e91565b60405180910390f35b6100e060048036038101906100db91906109c0565b610668565b6040516100f39796959493929190610f0c565b60405180910390f35b61010461081c565b6040516101119190610f82565b60405180910390f35b606060008260405161012c9190610fd9565b9081526020016040518091039020600601805480602002602001604051908101604052809291908181526020016000905b828210156101c85783829060005260206000209060040201604051806080016040529081600082015481526020016001820160009054906101000a900460ff16151515158152602001600282015481526020016003820154815250508152602001906001019061015d565b505050509050919050565b60006040518060800160405280858152602001841515815260200183815260200142815250905060028560405161020a9190610fd9565b908152602001604051809103902060009054906101000a900460ff166102975760018590806001815401808255809150506001900390600052602060002001600090919091909150908161025e91906111fc565b5060016002866040516102719190610fd9565b908152602001604051809103902060006101000a81548160ff0219169083151502179055505b600080866040516102a89190610fd9565b90815260200160405180910390209050858160000190816102c991906111fc565b50806006018290806001815401808255809150506001900390600052602060002090600402016000909190919091506000820151816000015560208201518160010160006101000a81548160ff0219169083151502179055506040820151816002015560608201518160030155505080600101600081548092919061034d906112fd565b9190505550828160040160008282546103669190611345565b92505081905550848160050160008282546103819190611345565b9250508190555083156103ad578060020160008154809291906103a3906112fd565b91905055506103c8565b8060030160008154809291906103c2906112fd565b91905055505b856040516103d69190610fd9565b60405180910390207fe6e001db2e97cd8e145745f4a0eeed0fea8f3a5f47782987c752ac722f6e9b468360405161040d91906113ce565b60405180910390a2505050505050565b60606000600180549050905060008167ffffffffffffffff81111561044557610444610895565b5b60405190808252806020026020018201604052801561047e57816020015b61046b610829565b8152602001906001900390816104635790505b50905060005b8281101561065f576000600182815481106104a2576104a16113e9565b5b906000526020600020016040516104b9919061149b565b90815260200160405180910390206040518060e00160405290816000820180546104e29061101f565b80601f016020809104026020016040519081016040528092919081815260200182805461050e9061101f565b801561055b5780601f106105305761010080835404028352916020019161055b565b820191906000526020600020905b81548152906001019060200180831161053e57829003601f168201915b50505050508152602001600182015481526020016002820154815260200160038201548152602001600482015481526020016005820154815260200160068201805480602002602001604051908101604052809291908181526020016000905b828210156106265783829060005260206000209060040201604051806080016040529081600082015481526020016001820160009054906101000a900460ff1615151515815260200160028201548152602001600382015481525050815260200190600101906105bb565b5050505081525050828281518110610641576106406113e9565b5b60200260200101819052508080610657906112fd565b915050610484565b50809250505090565b6060600080600080600080600080896040516106849190610fd9565b908152602001604051809103902090506000808260010154116106a85760006106ca565b816001015461271083600201546106bf91906114b2565b6106c99190611523565b5b90506000808360010154116106e05760006106f5565b826001015483600401546106f49190611523565b5b90506000808460010154111561075d5760008460010154856005015461071b9190611523565b905060006201d4c090508082101561075557806064838361073c9190611554565b61074691906114b2565b6107509190611523565b610758565b60005b925050505b8360000184600101548484848860020154896003015486805461077f9061101f565b80601f01602080910402602001604051908101604052809291908181526020018280546107ab9061101f565b80156107f85780601f106107cd576101008083540402835291602001916107f8565b820191906000526020600020905b8154815290600101906020018083116107db57829003601f168201915b505050505096509a509a509a509a509a509a509a5050505050919395979092949650565b6000600180549050905090565b6040518060e00160405280606081526020016000815260200160008152602001600081526020016000815260200160008152602001606081525090565b6000604051905090565b600080fd5b600080fd5b600080fd5b600080fd5b6000601f19601f8301169050919050565b7f4e487b7100000000000000000000000000000000000000000000000000000000600052604160045260246000fd5b6108cd82610884565b810181811067ffffffffffffffff821117156108ec576108eb610895565b5b80604052505050565b60006108ff610866565b905061090b82826108c4565b919050565b600067ffffffffffffffff82111561092b5761092a610895565b5b61093482610884565b9050602081019050919050565b82818337600083830152505050565b600061096361095e84610910565b6108f5565b90508281526020810184848401111561097f5761097e61087f565b5b61098a848285610941565b509392505050565b600082601f8301126109a7576109a661087a565b5b81356109b7848260208601610950565b91505092915050565b6000602082840312156109d6576109d5610870565b5b600082013567ffffffffffffffff8111156109f4576109f3610875565b5b610a0084828501610992565b91505092915050565b600081519050919050565b600082825260208201905092915050565b6000819050602082019050919050565b6000819050919050565b610a4881610a35565b82525050565b60008115159050919050565b610a6381610a4e565b82525050565b608082016000820151610a7f6000850182610a3f565b506020820151610a926020850182610a5a565b506040820151610aa56040850182610a3f565b506060820151610ab86060850182610a3f565b50505050565b6000610aca8383610a69565b60808301905092915050565b6000602082019050919050565b6000610aee82610a09565b610af88185610a14565b9350610b0383610a25565b8060005b83811015610b34578151610b1b8882610abe565b9750610b2683610ad6565b925050600181019050610b07565b5085935050505092915050565b60006020820190508181036000830152610b5b8184610ae3565b905092915050565b610b6c81610a35565b8114610b7757600080fd5b50565b600081359050610b8981610b63565b92915050565b610b9881610a4e565b8114610ba357600080fd5b50565b600081359050610bb581610b8f565b92915050565b60008060008060808587031215610bd557610bd4610870565b5b600085013567ffffffffffffffff811115610bf357610bf2610875565b5b610bff87828801610992565b9450506020610c1087828801610b7a565b9350506040610c2187828801610ba6565b9250506060610c3287828801610b7a565b91505092959194509250565b600081519050919050565b600082825260208201905092915050565b6000819050602082019050919050565b600081519050919050565b600082825260208201905092915050565b60005b83811015610ca4578082015181840152602081019050610c89565b60008484015250505050565b6000610cbb82610c6a565b610cc58185610c75565b9350610cd5818560208601610c86565b610cde81610884565b840191505092915050565b600082825260208201905092915050565b6000610d0582610a09565b610d0f8185610ce9565b9350610d1a83610a25565b8060005b83811015610d4b578151610d328882610abe565b9750610d3d83610ad6565b925050600181019050610d1e565b5085935050505092915050565b600060e0830160008301518482036000860152610d758282610cb0565b9150506020830151610d8a6020860182610a3f565b506040830151610d9d6040860182610a3f565b506060830151610db06060860182610a3f565b506080830151610dc36080860182610a3f565b5060a0830151610dd660a0860182610a3f565b5060c083015184820360c0860152610dee8282610cfa565b9150508091505092915050565b6000610e078383610d58565b905092915050565b6000602082019050919050565b6000610e2782610c3e565b610e318185610c49565b935083602082028501610e4385610c5a565b8060005b85811015610e7f5784840389528151610e608582610dfb565b9450610e6b83610e0f565b925060208a01995050600181019050610e47565b50829750879550505050505092915050565b60006020820190508181036000830152610eab8184610e1c565b905092915050565b600082825260208201905092915050565b6000610ecf82610c6a565b610ed98185610eb3565b9350610ee9818560208601610c86565b610ef281610884565b840191505092915050565b610f0681610a35565b82525050565b600060e0820190508181036000830152610f26818a610ec4565b9050610f356020830189610efd565b610f426040830188610efd565b610f4f6060830187610efd565b610f5c6080830186610efd565b610f6960a0830185610efd565b610f7660c0830184610efd565b98975050505050505050565b6000602082019050610f976000830184610efd565b92915050565b600081905092915050565b6000610fb382610c6a565b610fbd8185610f9d565b9350610fcd818560208601610c86565b80840191505092915050565b6000610fe58284610fa8565b915081905092915050565b7f4e487b7100000000000000000000000000000000000000000000000000000000600052602260045260246000fd5b6000600282049050600182168061103757607f821691505b60208210810361104a57611049610ff0565b5b50919050565b60008190508160005260206000209050919050565b60006020601f8301049050919050565b600082821b905092915050565b6000600883026110b27fffffffffffffffffffffffffffffffffffffffffffffffffffffffffffffffff82611075565b6110bc8683611075565b95508019841693508086168417925050509392505050565b6000819050919050565b60006110f96110f46110ef84610a35565b6110d4565b610a35565b9050919050565b6000819050919050565b611113836110de565b61112761111f82611100565b848454611082565b825550505050565b600090565b61113c61112f565b61114781848461110a565b505050565b5b8181101561116b57611160600082611134565b60018101905061114d565b5050565b601f8211156111b05761118181611050565b61118a84611065565b81016020851015611199578190505b6111ad6111a585611065565b83018261114c565b50505b505050565b600082821c905092915050565b60006111d3600019846008026111b5565b1980831691505092915050565b60006111ec83836111c2565b9150826002028217905092915050565b61120582610c6a565b67ffffffffffffffff81111561121e5761121d610895565b5b611228825461101f565b61123382828561116f565b600060209050601f8311600181146112665760008415611254578287015190505b61125e85826111e0565b8655506112c6565b601f19841661127486611050565b60005b8281101561129c57848901518255600182019150602085019450602081019050611277565b868310156112b957848901516112b5601f8916826111c2565b8355505b6001600288020188555050505b505050505050565b7f4e487b7100000000000000000000000000000000000000000000000000000000600052601160045260246000fd5b600061130882610a35565b91507fffffffffffffffffffffffffffffffffffffffffffffffffffffffffffffffff820361133a576113396112ce565b5b600182019050919050565b600061135082610a35565b915061135b83610a35565b9250828201905080821115611373576113726112ce565b5b92915050565b60808201600082015161138f6000850182610a3f565b5060208201516113a26020850182610a5a565b5060408201516113b56040850182610a3f565b5060608201516113c86060850182610a3f565b50505050565b60006080820190506113e36000830184611379565b92915050565b7f4e487b7100000000000000000000000000000000000000000000000000000000600052603260045260246000fd5b600081546114258161101f565b61142f8186610f9d565b9450600182166000811461144a576001811461145f57611492565b60ff1983168652811515820286019350611492565b61146885611050565b60005b8381101561148a5781548189015260018201915060208101905061146b565b838801955050505b50505092915050565b60006114a78284611418565b915081905092915050565b60006114bd82610a35565b91506114c883610a35565b92508282026114d681610a35565b915082820484148315176114ed576114ec6112ce565b5b5092915050565b7f4e487b7100000000000000000000000000000000000000000000000000000000600052601260045260246000fd5b600061152e82610a35565b915061153983610a35565b925082611549576115486114f4565b5b828204905092915050565b600061155f82610a35565b915061156a83610a35565b9250828203905081811115611582576115816112ce565b5b9291505056fea2646970667358221220455a1ee67d15b68d0e92010fe24dde426ca2b82efdf7d3b0611111066f8d989064736f6c63430008140033",
  "linkReferences": {},
  "deployedLinkReferences": {}
}