{
  "_format": "hh-sol-artifact-1",
  "contractName": "LogisticsDataStorage",
  "sourceName": "contracts/LogisticsDataStorage.sol",
  "abi": [
    {
      "anonymous": false,
      "inputs": [
        {
          "indexed": true,
          "internalType": "bytes32",
          "name": "shipmentId",
          "type": "bytes32"
        },
        {
          "components": [
            {
              "internalType": "uint256",
              "name": "timestamp",
              "type": "uint256"
            },
            {
              "internalType": "int16",
              "name": "temperature",
              "type": "int16"
            },
            {
              "internalType": "uint16",
              "name": "humidity",
              "type": "uint16"
            },
            {
              "internalType": "uint16",
              "name": "vibrations",
              "type": "uint16"
            },
            {
              "internalType": "int16",
              "name": "accelX",
              "type": "int16"
            },
            {
              "internalType": "int16",
              "name": "accelY",
              "type": "int16"
            },
            {
              "internalType": "int16",
              "name": "accelZ",
              "type": "int16"
            }
          ],
          "indexed": false,
          "internalType": "struct LogisticsDataStorage.SensorData",
          "name": "data",
          "type": "tuple"
        }
      ],
      "name": "DataSubmitted",
      "type": "event"
    },
    {
      "anonymous": false,
      "inputs": [
        {
          "indexed": true,
          "internalType": "bytes32",
          "name": "shipmentId",
          "type": "bytes32"
        },
        {
          "indexed": true,
          "internalType": "address",
          "name": "company",
          "type": "address"
        }
      ],
      "name": "DeliveryCreated",
      "type": "event"
    },
    {
      "inputs": [
        {
          "internalType": "bytes32",
          "name": "shipmentId",
          "type": "bytes32"
        },
        {
          "internalType": "string",
          "name": "origin",
          "type": "string"
        },
        {
          "internalType": "string",
          "name": "destination",
          "type": "string"
        },
        {
          "internalType": "string",
          "name": "cargoType",
          "type": "string"
        }
      ],
      "name": "createDelivery",
      "outputs": [],
      "stateMutability": "nonpayable",
      "type": "function"
    },
    {
      "inputs": [
        {
          "internalType": "bytes32",
          "name": "",
          "type": "bytes32"
        }
      ],
      "name": "deliveries",
      "outputs": [
        {
          "internalType": "address",
          "name": "company",
          "type": "address"
        },
        {
          "internalType": "string",
          "name": "origin",
          "type": "string"
        },
        {
          "internalType": "string",
          "name": "destination",
          "type": "string"
        },
        {
          "internalType": "string",
          "name": "cargoType",
          "type": "string"
        },
        {
          "internalType": "string",
          "name": "status",
          "type": "string"
        },
        {
          "internalType": "uint256",
          "name": "createdAt",
          "type": "uint256"
        }
      ],
      "stateMutability": "view",
      "type": "function"
    },
    {
      "inputs": [
        {
          "internalType": "bytes32",
          "name": "shipmentId",
          "type": "bytes32"
        }
      ],
      "name": "getDeliveryData",
      "outputs": [
        {
          "components": [
            {
              "internalType": "uint256",
              "name": "timestamp",
              "type": "uint256"
            },
            {
              "internalType": "int16",
              "name": "temperature",
              "type": "int16"
            },
            {
              "internalType": "uint16",
              "name": "humidity",
              "type": "uint16"
            },
            {
              "internalType": "uint16",
              "name": "vibrations",
              "type": "uint16"
            },
            {
              "internalType": "int16",
              "name": "accelX",
              "type": "int16"
            },
            {
              "internalType": "int16",
              "name": "accelY",
              "type": "int16"
            },
            {
              "internalType": "int16",
              "name": "accelZ",
              "type": "int16"
            }
          ],
          "internalType": "struct LogisticsDataStorage.SensorData[]",
          "name": "",
          "type": "tuple[]"
        }
      ],
      "stateMutability": "view",
      "type": "function"
    },
    {
      "inputs": [
        {
          "internalType": "bytes32",
          "name": "shipmentId",
          "type": "bytes32"
        },
        {
          "internalType": "int16",
          "name": "temperature",
          "type": "int16"
        },
        {
          "internalType": "uint16",
          "name": "humidity",
          "type": "uint16"
        },
        {
          "internalType": "uint16",
          "name": "vibrations",
          "type": "uint16"
        },
        {
          "internalType": "int16",
          "name": "accelX",
          "type": "int16"
        },
        {
          "internalType": "int16",
          "name": "accelY",
          "type": "int16"
        },
        {
          "internalType": "int16",
          "name": "accelZ",
          "type": "int16"
        }
      ],
      "name": "submitSensorData",
      "outputs": [],
      "stateMutability": "nonpayable",
      "type": "function"
    }
  ],
  "bytecode": "0x608060405234801561001057600080fd5b506113cb806100206000396000f3fe608060405234801561001057600080fd5b506004361061004c5760003560e01c806354f2b75914610051578063df44570d14610081578063e032a3391461009d578063ef990bf6146100d2575b600080fd5b61006b60048036038101906100669190610911565b6100ee565b6040516100789190610acd565b60405180910390f35b61009b60048036038101906100969190610c35565b610220565b005b6100b760048036038101906100b29190610911565b6103f1565b6040516100c996959493929190610dbf565b60405180910390f35b6100ec60048036038101906100e79190610e94565b61066d565b005b6060600080838152602001908152602001600020600601805480602002602001604051908101604052809291908181526020016000905b8282101561021557838290600052602060002090600202016040518060e0016040529081600082015481526020016001820160009054906101000a900460010b60010b60010b81526020016001820160029054906101000a900461ffff1661ffff1661ffff1681526020016001820160049054906101000a900461ffff1661ffff1661ffff1681526020016001820160069054906101000a900460010b60010b60010b81526020016001820160089054906101000a900460010b60010b60010b815260200160018201600a9054906101000a900460010b60010b60010b8152505081526020019060010190610125565b505050509050919050565b60008060008681526020019081526020016000206005015414610278576040517f08c379a000000000000000000000000000000000000000000000000000000000815260040161026f90610f82565b60405180910390fd5b3360008086815260200190815260200160002060000160006101000a81548173ffffffffffffffffffffffffffffffffffffffff021916908373ffffffffffffffffffffffffffffffffffffffff1602179055508260008086815260200190815260200160002060010190816102ee91906111ae565b5081600080868152602001908152602001600020600201908161031191906111ae565b5080600080868152602001908152602001600020600301908161033491906111ae565b506040518060400160405280600781526020017f4372656174656400000000000000000000000000000000000000000000000000815250600080868152602001908152602001600020600401908161038c91906111ae565b5042600080868152602001908152602001600020600501819055503373ffffffffffffffffffffffffffffffffffffffff16847f8a33a9c596f07cfdecb835121c01a194f50bf6e4721ec000badcb570d4fcea1360405160405180910390a350505050565b60006020528060005260406000206000915090508060000160009054906101000a900473ffffffffffffffffffffffffffffffffffffffff169080600101805461043a90610fd1565b80601f016020809104026020016040519081016040528092919081815260200182805461046690610fd1565b80156104b35780601f10610488576101008083540402835291602001916104b3565b820191906000526020600020905b81548152906001019060200180831161049657829003601f168201915b5050505050908060020180546104c890610fd1565b80601f01602080910402602001604051908101604052809291908181526020018280546104f490610fd1565b80156105415780601f1061051657610100808354040283529160200191610541565b820191906000526020600020905b81548152906001019060200180831161052457829003601f168201915b50505050509080600301805461055690610fd1565b80601f016020809104026020016040519081016040528092919081815260200182805461058290610fd1565b80156105cf5780601f106105a4576101008083540402835291602001916105cf565b820191906000526020600020905b8154815290600101906020018083116105b257829003601f168201915b5050505050908060040180546105e490610fd1565b80601f016020809104026020016040519081016040528092919081815260200182805461061090610fd1565b801561065d5780601f106106325761010080835404028352916020019161065d565b820191906000526020600020905b81548152906001019060200180831161064057829003601f168201915b5050505050908060050154905086565b600073ffffffffffffffffffffffffffffffffffffffff1660008089815260200190815260200160002060000160009054906101000a900473ffffffffffffffffffffffffffffffffffffffff1673ffffffffffffffffffffffffffffffffffffffff1603610711576040517f08c379a0000000000000000000000000000000000000000000000000000000008152600401610708906112cc565b60405180910390fd5b60006040518060e001604052804281526020018860010b81526020018761ffff1681526020018661ffff1681526020018560010b81526020018460010b81526020018360010b81525090506000808981526020019081526020016000206006018190806001815401808255809150506001900390600052602060002090600202016000909190919091506000820151816000015560208201518160010160006101000a81548161ffff021916908360010b61ffff16021790555060408201518160010160026101000a81548161ffff021916908361ffff16021790555060608201518160010160046101000a81548161ffff021916908361ffff16021790555060808201518160010160066101000a81548161ffff021916908360010b61ffff16021790555060a08201518160010160086101000a81548161ffff021916908360010b61ffff16021790555060c082015181600101600a6101000a81548161ffff021916908360010b61ffff1602179055505050877fce32953a88ecc3f27d6cc01167714facc595edc02172f1987a7716db3e5ddea1826040516108b5919061137a565b60405180910390a25050505050505050565b6000604051905090565b600080fd5b600080fd5b6000819050919050565b6108ee816108db565b81146108f957600080fd5b50565b60008135905061090b816108e5565b92915050565b600060208284031215610927576109266108d1565b5b6000610935848285016108fc565b91505092915050565b600081519050919050565b600082825260208201905092915050565b6000819050602082019050919050565b6000819050919050565b61097d8161096a565b82525050565b60008160010b9050919050565b61099981610983565b82525050565b600061ffff82169050919050565b6109b68161099f565b82525050565b60e0820160008201516109d26000850182610974565b5060208201516109e56020850182610990565b5060408201516109f860408501826109ad565b506060820151610a0b60608501826109ad565b506080820151610a1e6080850182610990565b5060a0820151610a3160a0850182610990565b5060c0820151610a4460c0850182610990565b50505050565b6000610a5683836109bc565b60e08301905092915050565b6000602082019050919050565b6000610a7a8261093e565b610a848185610949565b9350610a8f8361095a565b8060005b83811015610ac0578151610aa78882610a4a565b9750610ab283610a62565b925050600181019050610a93565b5085935050505092915050565b60006020820190508181036000830152610ae78184610a6f565b905092915050565b600080fd5b600080fd5b6000601f19601f8301169050919050565b7f4e487b7100000000000000000000000000000000000000000000000000000000600052604160045260246000fd5b610b4282610af9565b810181811067ffffffffffffffff82111715610b6157610b60610b0a565b5b80604052505050565b6000610b746108c7565b9050610b808282610b39565b919050565b600067ffffffffffffffff821115610ba057610b9f610b0a565b5b610ba982610af9565b9050602081019050919050565b82818337600083830152505050565b6000610bd8610bd384610b85565b610b6a565b905082815260208101848484011115610bf457610bf3610af4565b5b610bff848285610bb6565b509392505050565b600082601f830112610c1c57610c1b610aef565b5b8135610c2c848260208601610bc5565b91505092915050565b60008060008060808587031215610c4f57610c4e6108d1565b5b6000610c5d878288016108fc565b945050602085013567ffffffffffffffff811115610c7e57610c7d6108d6565b5b610c8a87828801610c07565b935050604085013567ffffffffffffffff811115610cab57610caa6108d6565b5b610cb787828801610c07565b925050606085013567ffffffffffffffff811115610cd857610cd76108d6565b5b610ce487828801610c07565b91505092959194509250565b600073ffffffffffffffffffffffffffffffffffffffff82169050919050565b6000610d1b82610cf0565b9050919050565b610d2b81610d10565b82525050565b600081519050919050565b600082825260208201905092915050565b60005b83811015610d6b578082015181840152602081019050610d50565b60008484015250505050565b6000610d8282610d31565b610d8c8185610d3c565b9350610d9c818560208601610d4d565b610da581610af9565b840191505092915050565b610db98161096a565b82525050565b600060c082019050610dd46000830189610d22565b8181036020830152610de68188610d77565b90508181036040830152610dfa8187610d77565b90508181036060830152610e0e8186610d77565b90508181036080830152610e228185610d77565b9050610e3160a0830184610db0565b979650505050505050565b610e4581610983565b8114610e5057600080fd5b50565b600081359050610e6281610e3c565b92915050565b610e718161099f565b8114610e7c57600080fd5b50565b600081359050610e8e81610e68565b92915050565b600080600080600080600060e0888a031215610eb357610eb26108d1565b5b6000610ec18a828b016108fc565b9750506020610ed28a828b01610e53565b9650506040610ee38a828b01610e7f565b9550506060610ef48a828b01610e7f565b9450506080610f058a828b01610e53565b93505060a0610f168a828b01610e53565b92505060c0610f278a828b01610e53565b91505092959891949750929550565b7f536869706d656e7420616c726561647920657869737473000000000000000000600082015250565b6000610f6c601783610d3c565b9150610f7782610f36565b602082019050919050565b60006020820190508181036000830152610f9b81610f5f565b9050919050565b7f4e487b7100000000000000000000000000000000000000000000000000000000600052602260045260246000fd5b60006002820490506001821680610fe957607f821691505b602082108103610ffc57610ffb610fa2565b5b50919050565b60008190508160005260206000209050919050565b60006020601f8301049050919050565b600082821b905092915050565b6000600883026110647fffffffffffffffffffffffffffffffffffffffffffffffffffffffffffffffff82611027565b61106e8683611027565b95508019841693508086168417925050509392505050565b6000819050919050565b60006110ab6110a66110a18461096a565b611086565b61096a565b9050919050565b6000819050919050565b6110c583611090565b6110d96110d1826110b2565b848454611034565b825550505050565b600090565b6110ee6110e1565b6110f98184846110bc565b505050565b5b8181101561111d576111126000826110e6565b6001810190506110ff565b5050565b601f8211156111625761113381611002565b61113c84611017565b8101602085101561114b578190505b61115f61115785611017565b8301826110fe565b50505b505050565b600082821c905092915050565b600061118560001984600802611167565b1980831691505092915050565b600061119e8383611174565b9150826002028217905092915050565b6111b782610d31565b67ffffffffffffffff8111156111d0576111cf610b0a565b5b6111da8254610fd1565b6111e5828285611121565b600060209050601f8311600181146112185760008415611206578287015190505b6112108582611192565b865550611278565b601f19841661122686611002565b60005b8281101561124e57848901518255600182019150602085019450602081019050611229565b8683101561126b5784890151611267601f891682611174565b8355505b6001600288020188555050505b505050505050565b7f556e6b6e6f776e20736869706d656e7400000000000000000000000000000000600082015250565b60006112b6601083610d3c565b91506112c182611280565b602082019050919050565b600060208201905081810360008301526112e5816112a9565b9050919050565b60e0820160008201516113026000850182610974565b5060208201516113156020850182610990565b50604082015161132860408501826109ad565b50606082015161133b60608501826109ad565b50608082015161134e6080850182610990565b5060a082015161136160a0850182610990565b5060c082015161137460c0850182610990565b50505050565b600060e08201905061138f60008301846112ec565b9291505056fea26469706673582212209e0ac7f408f5e8e716768827d7b181f7124bfd07bf5ca4ed87a937ef68a8996664736f6c63430008140033",
  "linkReferences": {},
  "deployedLinkReferences": {}
}